{
  "contractName": "Dapp",
  "abi": [
    {
      "inputs": [
        {
          "internalType": "address",
          "name": "dappStateContract",
          "type": "address"
        }
      ],
      "payable": false,
      "stateMutability": "nonpayable",
      "type": "constructor"
    },
    {
      "constant": true,
      "inputs": [],
      "name": "getStateContractOwner",
      "outputs": [
        {
          "internalType": "address",
          "name": "",
          "type": "address"
        }
      ],
      "payable": false,
      "stateMutability": "view",
      "type": "function"
    },
    {
      "constant": false,
      "inputs": [
        {
          "internalType": "uint256",
          "name": "increment",
          "type": "uint256"
        }
      ],
      "name": "incrementStateCounter",
      "outputs": [],
      "payable": false,
      "stateMutability": "nonpayable",
      "type": "function"
    },
    {
      "constant": true,
      "inputs": [],
      "name": "getStateCounter",
      "outputs": [
        {
          "internalType": "uint256",
          "name": "",
          "type": "uint256"
        }
      ],
      "payable": false,
      "stateMutability": "view",
      "type": "function"
    }
  ],
  "bytecode": "0x608060405234801561001057600080fd5b506040516105423803806105428339818101604052610032919081019061008d565b806000806101000a81548173ffffffffffffffffffffffffffffffffffffffff021916908373ffffffffffffffffffffffffffffffffffffffff160217905550506100ff565b600081519050610087816100e8565b92915050565b60006020828403121561009f57600080fd5b60006100ad84828501610078565b91505092915050565b60006100c1826100c8565b9050919050565b600073ffffffffffffffffffffffffffffffffffffffff82169050919050565b6100f1816100b6565b81146100fc57600080fd5b50565b6104348061010e6000396000f3fe608060405234801561001057600080fd5b50600436106100415760003560e01c8063111d4a0714610046578063a9bd9fc514610062578063cde03c7814610080575b600080fd5b610060600480360361005b91908101906102e1565b61009e565b005b61006a61012d565b604051610077919061036c565b60405180910390f35b6100886101d3565b6040516100959190610351565b60405180910390f35b6000809054906101000a900473ffffffffffffffffffffffffffffffffffffffff1673ffffffffffffffffffffffffffffffffffffffff16636abbb3b4826040518263ffffffff1660e01b81526004016100f8919061036c565b600060405180830381600087803b15801561011257600080fd5b505af1158015610126573d6000803e3d6000fd5b5050505050565b60008060009054906101000a900473ffffffffffffffffffffffffffffffffffffffff1673ffffffffffffffffffffffffffffffffffffffff16638ada066e6040518163ffffffff1660e01b815260040160206040518083038186803b15801561019657600080fd5b505afa1580156101aa573d6000803e3d6000fd5b505050506040513d601f19601f820116820180604052506101ce919081019061030a565b905090565b60008060009054906101000a900473ffffffffffffffffffffffffffffffffffffffff1673ffffffffffffffffffffffffffffffffffffffff1663442890d56040518163ffffffff1660e01b815260040160206040518083038186803b15801561023c57600080fd5b505afa158015610250573d6000803e3d6000fd5b505050506040513d601f19601f8201168201806040525061027491908101906102b8565b905090565b600081519050610288816103c3565b92915050565b60008135905061029d816103da565b92915050565b6000815190506102b2816103da565b92915050565b6000602082840312156102ca57600080fd5b60006102d884828501610279565b91505092915050565b6000602082840312156102f357600080fd5b60006103018482850161028e565b91505092915050565b60006020828403121561031c57600080fd5b600061032a848285016102a3565b91505092915050565b61033c81610387565b82525050565b61034b816103b9565b82525050565b60006020820190506103666000830184610333565b92915050565b60006020820190506103816000830184610342565b92915050565b600061039282610399565b9050919050565b600073ffffffffffffffffffffffffffffffffffffffff82169050919050565b6000819050919050565b6103cc81610387565b81146103d757600080fd5b50565b6103e3816103b9565b81146103ee57600080fd5b5056fea365627a7a72315820cf4c6e3e78e2fd8688bc92fa014699f1b78e37c931126e4fc58f5914969e3f206c6578706572696d656e74616cf564736f6c63430005100040",
  "source": "pragma solidity  >=0.5.0;\npragma experimental ABIEncoderV2;\n\nimport \"./interfaces/IDappState.sol\";\nimport \"./DappLib.sol\";\n\n    /*\n\n    VERY IMPORTANT SECURITY NOTE:\n\n    You will want to restrict some of your state contract functions so only authorized\n    contracts can call them. This can be achieved in four steps:\n\n    1) Include the \"Access Control: Contract Access\" feature block when creating your project.\n       This adds all the functionality to manage white-listing of external contracts in your\n       state contract.\n\n    2) Add the \"requireContractAuthorized\" function modifiers to those state contract functions\n       that should be restricted.\n\n    3) Deploy the contract that will be calling into the state contract (like this one, for example).\n    \n    4) Call the \"authorizeContract()\" function in the state contract with the deployed address of the\n       calling contract. This adds the calling contract to a white-list. Thereafter, any calls to any\n       function in the state contract that use the \"requireContractAuthorized\" function modifier will\n       succeed only if the calling contract (or any caller for that matter) is white-listed.\n\n    */\n\n\ncontract Dapp {\n    // Allow DappLib(SafeMath) functions to be called for all uint256 types\n    // (similar to \"prototype\" in Javascript)\n    using DappLib for uint256;\n\n    IDappState state;\n\n    // During deployment, the address of the contract that contains data (or \"state\")\n    // is provided as a constructor argument. The \"state\" variable can then call any\n    // function in the state contract that it is aware of (by way of IDappState).\n    constructor \n                (\n                    address dappStateContract \n                )\n                public\n    {\n        state = IDappState(dappStateContract);\n    }\n\n    /**\n    * @dev Example function to demonstrate cross-contract READ call\n    *\n    */\n    function getStateContractOwner()\n                            external\n                            view\n                            returns(address)\n    {\n        return state.getContractOwner();\n    }\n\n    /**\n    * @dev Example function to demonstrate cross-contract WRITE call\n    *\n    */\n    function incrementStateCounter\n                            (\n                                uint256 increment\n                            )\n                            external\n    {\n        return state.incrementCounter(increment);\n    }\n\n\n    /**\n    * @dev Another example function to demonstrate cross-contract WRITE call\n    *\n    */\n    function getStateCounter()\n                            external\n                            view\n                            returns(uint256)\n    {\n        return state.getCounter();\n    }\n\n} \n",
  "sourcePath": "/Users/adike/WebstormProjects/polite-ibakof/contracts/Dapp.sol",
  "compiler": {
    "name": "solc",
    "version": "0.5.16+commit.9c3226ce.Emscripten.clang"
  },
  "schemaVersion": "3.0.23",
  "updatedAt": "2020-03-02T17:47:44.154Z",
  "networkType": "ethereum",
  "devdoc": {
    "methods": {
      "getStateContractOwner()": {
        "details": "Example function to demonstrate cross-contract READ call    "
      },
      "getStateCounter()": {
        "details": "Another example function to demonstrate cross-contract WRITE call    "
      },
      "incrementStateCounter(uint256)": {
        "details": "Example function to demonstrate cross-contract WRITE call    "
      }
    }
  },
  "userdoc": {
    "methods": {}
  }
}