{
  "contractName": "DappState",
  "abi": [
    {
      "inputs": [],
      "payable": false,
      "stateMutability": "nonpayable",
      "type": "constructor"
    },
    {
      "anonymous": false,
      "inputs": [
        {
          "indexed": true,
          "internalType": "bytes32",
          "name": "docId",
          "type": "bytes32"
        },
        {
          "indexed": true,
          "internalType": "address",
          "name": "owner",
          "type": "address"
        },
        {
          "indexed": false,
          "internalType": "uint256",
          "name": "timestamp",
          "type": "uint256"
        }
      ],
      "name": "AddIpfsDocument",
      "type": "event"
    },
    {
      "anonymous": false,
      "inputs": [
        {
          "indexed": true,
          "internalType": "address",
          "name": "owner",
          "type": "address"
        },
        {
          "indexed": true,
          "internalType": "address",
          "name": "spender",
          "type": "address"
        },
        {
          "indexed": false,
          "internalType": "uint256",
          "name": "value",
          "type": "uint256"
        }
      ],
      "name": "Approval",
      "type": "event"
    },
    {
      "anonymous": false,
      "inputs": [
        {
          "indexed": true,
          "internalType": "address",
          "name": "from",
          "type": "address"
        },
        {
          "indexed": true,
          "internalType": "address",
          "name": "to",
          "type": "address"
        },
        {
          "indexed": false,
          "internalType": "uint256",
          "name": "value",
          "type": "uint256"
        }
      ],
      "name": "Transfer",
      "type": "event"
    },
    {
      "constant": true,
      "inputs": [],
      "name": "UNIT_MULTIPLIER",
      "outputs": [
        {
          "internalType": "uint256",
          "name": "",
          "type": "uint256"
        }
      ],
      "payable": false,
      "stateMutability": "view",
      "type": "function"
    },
    {
      "constant": true,
      "inputs": [],
      "name": "decimals",
      "outputs": [
        {
          "internalType": "uint256",
          "name": "",
          "type": "uint256"
        }
      ],
      "payable": false,
      "stateMutability": "view",
      "type": "function"
    },
    {
      "constant": true,
      "inputs": [],
      "name": "initialSupply",
      "outputs": [
        {
          "internalType": "uint256",
          "name": "",
          "type": "uint256"
        }
      ],
      "payable": false,
      "stateMutability": "view",
      "type": "function"
    },
    {
      "constant": true,
      "inputs": [
        {
          "internalType": "address",
          "name": "",
          "type": "address"
        },
        {
          "internalType": "uint256",
          "name": "",
          "type": "uint256"
        }
      ],
      "name": "ipfsDocsByOwner",
      "outputs": [
        {
          "internalType": "bytes32",
          "name": "",
          "type": "bytes32"
        }
      ],
      "payable": false,
      "stateMutability": "view",
      "type": "function"
    },
    {
      "constant": true,
      "inputs": [
        {
          "internalType": "uint256",
          "name": "",
          "type": "uint256"
        },
        {
          "internalType": "uint256",
          "name": "",
          "type": "uint256"
        }
      ],
      "name": "ipfsDocsByPage",
      "outputs": [
        {
          "internalType": "bytes32",
          "name": "",
          "type": "bytes32"
        }
      ],
      "payable": false,
      "stateMutability": "view",
      "type": "function"
    },
    {
      "constant": true,
      "inputs": [],
      "name": "ipfsLastPage",
      "outputs": [
        {
          "internalType": "uint256",
          "name": "",
          "type": "uint256"
        }
      ],
      "payable": false,
      "stateMutability": "view",
      "type": "function"
    },
    {
      "constant": true,
      "inputs": [],
      "name": "name",
      "outputs": [
        {
          "internalType": "string",
          "name": "",
          "type": "string"
        }
      ],
      "payable": false,
      "stateMutability": "view",
      "type": "function"
    },
    {
      "constant": true,
      "inputs": [],
      "name": "symbol",
      "outputs": [
        {
          "internalType": "string",
          "name": "",
          "type": "string"
        }
      ],
      "payable": false,
      "stateMutability": "view",
      "type": "function"
    },
    {
      "constant": true,
      "inputs": [],
      "name": "total",
      "outputs": [
        {
          "internalType": "uint256",
          "name": "",
          "type": "uint256"
        }
      ],
      "payable": false,
      "stateMutability": "view",
      "type": "function"
    },
    {
      "constant": true,
      "inputs": [],
      "name": "totalSupply",
      "outputs": [
        {
          "internalType": "uint256",
          "name": "",
          "type": "uint256"
        }
      ],
      "payable": false,
      "stateMutability": "view",
      "type": "function"
    },
    {
      "constant": true,
      "inputs": [],
      "name": "balance",
      "outputs": [
        {
          "internalType": "uint256",
          "name": "",
          "type": "uint256"
        }
      ],
      "payable": false,
      "stateMutability": "view",
      "type": "function"
    },
    {
      "constant": true,
      "inputs": [
        {
          "internalType": "address",
          "name": "owner",
          "type": "address"
        }
      ],
      "name": "balanceOf",
      "outputs": [
        {
          "internalType": "uint256",
          "name": "",
          "type": "uint256"
        }
      ],
      "payable": false,
      "stateMutability": "view",
      "type": "function"
    },
    {
      "constant": false,
      "inputs": [
        {
          "internalType": "address",
          "name": "to",
          "type": "address"
        },
        {
          "internalType": "uint256",
          "name": "value",
          "type": "uint256"
        }
      ],
      "name": "transfer",
      "outputs": [
        {
          "internalType": "bool",
          "name": "",
          "type": "bool"
        }
      ],
      "payable": false,
      "stateMutability": "nonpayable",
      "type": "function"
    },
    {
      "constant": false,
      "inputs": [
        {
          "internalType": "address",
          "name": "from",
          "type": "address"
        },
        {
          "internalType": "address",
          "name": "to",
          "type": "address"
        },
        {
          "internalType": "uint256",
          "name": "value",
          "type": "uint256"
        }
      ],
      "name": "transferFrom",
      "outputs": [
        {
          "internalType": "bool",
          "name": "",
          "type": "bool"
        }
      ],
      "payable": false,
      "stateMutability": "nonpayable",
      "type": "function"
    },
    {
      "constant": true,
      "inputs": [
        {
          "internalType": "address",
          "name": "owner",
          "type": "address"
        },
        {
          "internalType": "address",
          "name": "spender",
          "type": "address"
        }
      ],
      "name": "allowance",
      "outputs": [
        {
          "internalType": "uint256",
          "name": "",
          "type": "uint256"
        }
      ],
      "payable": false,
      "stateMutability": "view",
      "type": "function"
    },
    {
      "constant": false,
      "inputs": [
        {
          "internalType": "address",
          "name": "spender",
          "type": "address"
        },
        {
          "internalType": "uint256",
          "name": "value",
          "type": "uint256"
        }
      ],
      "name": "approve",
      "outputs": [
        {
          "internalType": "bool",
          "name": "",
          "type": "bool"
        }
      ],
      "payable": false,
      "stateMutability": "nonpayable",
      "type": "function"
    },
    {
      "constant": false,
      "inputs": [
        {
          "internalType": "bytes32",
          "name": "docId",
          "type": "bytes32"
        },
        {
          "internalType": "bytes32",
          "name": "label",
          "type": "bytes32"
        },
        {
          "internalType": "bytes32",
          "name": "digest",
          "type": "bytes32"
        },
        {
          "internalType": "uint8",
          "name": "hashFunction",
          "type": "uint8"
        },
        {
          "internalType": "uint8",
          "name": "digestLength",
          "type": "uint8"
        }
      ],
      "name": "addIpfsDocument",
      "outputs": [],
      "payable": false,
      "stateMutability": "nonpayable",
      "type": "function"
    },
    {
      "constant": true,
      "inputs": [
        {
          "internalType": "bytes32",
          "name": "id",
          "type": "bytes32"
        }
      ],
      "name": "getIpfsDocument",
      "outputs": [
        {
          "internalType": "bytes32",
          "name": "docId",
          "type": "bytes32"
        },
        {
          "internalType": "bytes32",
          "name": "label",
          "type": "bytes32"
        },
        {
          "internalType": "uint256",
          "name": "timestamp",
          "type": "uint256"
        },
        {
          "internalType": "address",
          "name": "owner",
          "type": "address"
        },
        {
          "internalType": "bytes32",
          "name": "docDigest",
          "type": "bytes32"
        },
        {
          "internalType": "uint8",
          "name": "docHashFunction",
          "type": "uint8"
        },
        {
          "internalType": "uint8",
          "name": "docDigestLength",
          "type": "uint8"
        }
      ],
      "payable": false,
      "stateMutability": "view",
      "type": "function"
    },
    {
      "constant": true,
      "inputs": [
        {
          "internalType": "address",
          "name": "account",
          "type": "address"
        }
      ],
      "name": "getIpfsDocumentsByOwner",
      "outputs": [
        {
          "internalType": "bytes32[]",
          "name": "",
          "type": "bytes32[]"
        }
      ],
      "payable": false,
      "stateMutability": "view",
      "type": "function"
    },
    {
      "constant": true,
      "inputs": [],
      "name": "getContractOwner",
      "outputs": [
        {
          "internalType": "address",
          "name": "",
          "type": "address"
        }
      ],
      "payable": false,
      "stateMutability": "view",
      "type": "function"
    },
    {
      "constant": false,
      "inputs": [
        {
          "internalType": "uint256",
          "name": "increment",
          "type": "uint256"
        }
      ],
      "name": "incrementCounter",
      "outputs": [],
      "payable": false,
      "stateMutability": "nonpayable",
      "type": "function"
    },
    {
      "constant": true,
      "inputs": [],
      "name": "getCounter",
      "outputs": [
        {
          "internalType": "uint256",
          "name": "",
          "type": "uint256"
        }
      ],
      "payable": false,
      "stateMutability": "view",
      "type": "function"
    }
  ],
  "bytecode": "0x60806040526000600a553480156200001657600080fd5b50336000806101000a81548173ffffffffffffffffffffffffffffffffffffffff021916908373ffffffffffffffffffffffffffffffffffffffff1602179055506040518060400160405280600a81526020017f417572756d20436f696e0000000000000000000000000000000000000000000081525060019080519060200190620000a4929190620001e5565b506040518060400160405280600381526020017f415543000000000000000000000000000000000000000000000000000000000081525060029080519060200190620000f2929190620001e5565b506012600381905550600354600a0a60088190555060006402540be40090506200012d60085482620001aa60201b62001d2c1790919060201c565b600681905550600654600781905550600654600460008060009054906101000a900473ffffffffffffffffffffffffffffffffffffffff1673ffffffffffffffffffffffffffffffffffffffff1673ffffffffffffffffffffffffffffffffffffffff168152602001908152602001600020819055505062000294565b600080831415620001bf5760009050620001df565b6000828402905082848281620001d157fe5b0414620001da57fe5b809150505b92915050565b828054600181600116156101000203166002900490600052602060002090601f016020900481019282601f106200022857805160ff191683800117855562000259565b8280016001018555821562000259579182015b82811115620002585782518255916020019190600101906200023b565b5b5090506200026891906200026c565b5090565b6200029191905b808211156200028d57600081600090555060010162000273565b5090565b90565b611da680620002a46000396000f3fe608060405234801561001057600080fd5b50600436106101425760003560e01c80634168af97116100b857806395d89b411161007c57806395d89b4114610395578063a9059cbb146103b3578063b134be13146103e3578063b69ef8a814610413578063dd62ed3e14610431578063fc540cd31461046157610142565b80634168af97146102dd578063442890d51461030d5780636abbb3b41461032b57806370a08231146103475780638ada066e1461037757610142565b806323b872dd1161010a57806323b872dd146101ed5780632ddbd13a1461021d578063313ce5671461023b5780633744164e14610259578063378dc3dc146102895780633b576728146102a757610142565b806306fdde0314610147578063095ea7b31461016557806318160ddd146101955780631ddf7617146101b35780631e8ef674146101d1575b600080fd5b61014f61047f565b60405161015c9190611afb565b60405180910390f35b61017f600480360361017a919081019061168f565b61051d565b60405161018c9190611a56565b60405180910390f35b61019d61060f565b6040516101aa9190611bbd565b60405180910390f35b6101bb610619565b6040516101c89190611bbd565b60405180910390f35b6101eb60048036036101e691908101906116f4565b61061f565b005b61020760048036036102029190810190611640565b6109e1565b6040516102149190611a56565b60405180910390f35b610225610dd6565b6040516102329190611bbd565b60405180910390f35b610243610ddc565b6040516102509190611bbd565b60405180910390f35b610273600480360361026e91908101906115db565b610de2565b6040516102809190611a34565b60405180910390f35b610291610ee9565b60405161029e9190611bbd565b60405180910390f35b6102c160048036036102bc91908101906116cb565b610eef565b6040516102d49796959493929190611a8c565b60405180910390f35b6102f760048036036102f29190810190611794565b611037565b6040516103049190611a71565b60405180910390f35b610315611065565b6040516103229190611a19565b60405180910390f35b6103456004803603610340919081019061176b565b61108e565b005b610361600480360361035c91908101906115db565b6110fb565b60405161036e9190611bbd565b60405180910390f35b61037f611144565b60405161038c9190611bbd565b60405180910390f35b61039d61114e565b6040516103aa9190611afb565b60405180910390f35b6103cd60048036036103c8919081019061168f565b6111ec565b6040516103da9190611a56565b60405180910390f35b6103fd60048036036103f8919081019061168f565b61140e565b60405161040a9190611a71565b60405180910390f35b61041b61143c565b6040516104289190611bbd565b60405180910390f35b61044b60048036036104469190810190611604565b61144c565b6040516104589190611bbd565b60405180910390f35b6104696114d3565b6040516104769190611bbd565b60405180910390f35b60018054600181600116156101000203166002900480601f0160208091040260200160405190810160405280929190818152602001828054600181600116156101000203166002900480156105155780601f106104ea57610100808354040283529160200191610515565b820191906000526020600020905b8154815290600101906020018083116104f857829003601f168201915b505050505081565b600081600560003373ffffffffffffffffffffffffffffffffffffffff1673ffffffffffffffffffffffffffffffffffffffff16815260200190815260200160002060008573ffffffffffffffffffffffffffffffffffffffff1673ffffffffffffffffffffffffffffffffffffffff168152602001908152602001600020819055508273ffffffffffffffffffffffffffffffffffffffff163373ffffffffffffffffffffffffffffffffffffffff167f8c5be1e5ebec7d5bd14f71427d1e84f3dd0314c0f7b2291e5b200ac8c7c3b925846040516105fd9190611bbd565b60405180910390a36001905092915050565b6000600654905090565b600a5481565b600060f81b8560006020811061063157fe5b1a60f81b7effffffffffffffffffffffffffffffffffffffffffffffffffffffffffffff19161415610698576040517f08c379a000000000000000000000000000000000000000000000000000000000815260040161068f90611b5d565b60405180910390fd5b600060f81b836000602081106106aa57fe5b1a60f81b7effffffffffffffffffffffffffffffffffffffffffffffffffffffffffffff19161415610711576040517f08c379a000000000000000000000000000000000000000000000000000000000815260040161070890611b9d565b60405180910390fd5b600060096000878152602001908152602001600020600201541461076a576040517f08c379a000000000000000000000000000000000000000000000000000000000815260040161076190611b1d565b60405180910390fd5b6040518060a001604052808681526020018581526020014281526020013373ffffffffffffffffffffffffffffffffffffffff16815260200160405180606001604052808681526020018560ff1681526020018460ff168152508152506009600087815260200190815260200160002060008201518160000155602082015181600101556040820151816002015560608201518160030160006101000a81548173ffffffffffffffffffffffffffffffffffffffff021916908373ffffffffffffffffffffffffffffffffffffffff1602179055506080820151816004016000820151816000015560208201518160010160006101000a81548160ff021916908360ff16021790555060408201518160010160016101000a81548160ff021916908360ff1602179055505050905050600c60003373ffffffffffffffffffffffffffffffffffffffff1673ffffffffffffffffffffffffffffffffffffffff1681526020019081526020016000208590806001815401808255809150509060018203906000526020600020016000909192909190915055506032600b6000600a54815260200190815260200160002080549050141561093657600a600081548092919060010191905055505b600b6000600a5481526020019081526020016000208590806001815401808255809150509060018203906000526020600020016000909192909190915055503373ffffffffffffffffffffffffffffffffffffffff16857fdfe40412e0f68c74fdc08b6496ad2c0cdd238105ffb6b458803aacc8430aa66660096000898152602001908152602001600020600201546040516109d29190611bbd565b60405180910390a35050505050565b60008073ffffffffffffffffffffffffffffffffffffffff168473ffffffffffffffffffffffffffffffffffffffff161415610a1c57600080fd5b600560008573ffffffffffffffffffffffffffffffffffffffff1673ffffffffffffffffffffffffffffffffffffffff16815260200190815260200160002060003373ffffffffffffffffffffffffffffffffffffffff1673ffffffffffffffffffffffffffffffffffffffff16815260200190815260200160002054821115610aa557600080fd5b610aae846110fb565b821115610aba57600080fd5b600073ffffffffffffffffffffffffffffffffffffffff168373ffffffffffffffffffffffffffffffffffffffff161415610af457600080fd5b8273ffffffffffffffffffffffffffffffffffffffff168473ffffffffffffffffffffffffffffffffffffffff161415610b2d57600080fd5b610b7f82600460008773ffffffffffffffffffffffffffffffffffffffff1673ffffffffffffffffffffffffffffffffffffffff168152602001908152602001600020546114d990919063ffffffff16565b600460008673ffffffffffffffffffffffffffffffffffffffff1673ffffffffffffffffffffffffffffffffffffffff16815260200190815260200160002081905550610c1482600460008673ffffffffffffffffffffffffffffffffffffffff1673ffffffffffffffffffffffffffffffffffffffff168152602001908152602001600020546114f090919063ffffffff16565b600460008573ffffffffffffffffffffffffffffffffffffffff1673ffffffffffffffffffffffffffffffffffffffff16815260200190815260200160002081905550610ce682600560008773ffffffffffffffffffffffffffffffffffffffff1673ffffffffffffffffffffffffffffffffffffffff16815260200190815260200160002060003373ffffffffffffffffffffffffffffffffffffffff1673ffffffffffffffffffffffffffffffffffffffff168152602001908152602001600020546114d990919063ffffffff16565b600560008673ffffffffffffffffffffffffffffffffffffffff1673ffffffffffffffffffffffffffffffffffffffff16815260200190815260200160002060003373ffffffffffffffffffffffffffffffffffffffff1673ffffffffffffffffffffffffffffffffffffffff168152602001908152602001600020819055508273ffffffffffffffffffffffffffffffffffffffff168473ffffffffffffffffffffffffffffffffffffffff167fddf252ad1be2c89b69c2b068fc378daa952ba7f163c4a11628f55a4df523b3ef84604051610dc39190611bbd565b60405180910390a3600190509392505050565b60065481565b60035481565b6060600073ffffffffffffffffffffffffffffffffffffffff168273ffffffffffffffffffffffffffffffffffffffff161415610e54576040517f08c379a0000000000000000000000000000000000000000000000000000000008152600401610e4b90611b3d565b60405180910390fd5b600c60008373ffffffffffffffffffffffffffffffffffffffff1673ffffffffffffffffffffffffffffffffffffffff168152602001908152602001600020805480602002602001604051908101604052809291908181526020018280548015610edd57602002820191906000526020600020905b815481526020019060010190808311610ec9575b50505050509050919050565b60075481565b6000806000806000806000610f0261150c565b600960008a81526020019081526020016000206040518060a00160405290816000820154815260200160018201548152602001600282015481526020016003820160009054906101000a900473ffffffffffffffffffffffffffffffffffffffff1673ffffffffffffffffffffffffffffffffffffffff1673ffffffffffffffffffffffffffffffffffffffff16815260200160048201604051806060016040529081600082015481526020016001820160009054906101000a900460ff1660ff1660ff1681526020016001820160019054906101000a900460ff1660ff1660ff16815250508152505090508060000151975080602001519650806040015195508060600151945080608001516000015193508060800151602001519250806080015160400151915050919395979092949650565b600b602052816000526040600020818154811061105057fe5b90600052602060002001600091509150505481565b60008060009054906101000a900473ffffffffffffffffffffffffffffffffffffffff16905090565b60008111801561109e5750600a81105b6110dd576040517f08c379a00000000000000000000000000000000000000000000000000000000081526004016110d490611b7d565b60405180910390fd5b6110f281600d546114f090919063ffffffff16565b600d8190555050565b6000600460008373ffffffffffffffffffffffffffffffffffffffff1673ffffffffffffffffffffffffffffffffffffffff168152602001908152602001600020549050919050565b6000600d54905090565b60028054600181600116156101000203166002900480601f0160208091040260200160405190810160405280929190818152602001828054600181600116156101000203166002900480156111e45780601f106111b9576101008083540402835291602001916111e4565b820191906000526020600020905b8154815290600101906020018083116111c757829003601f168201915b505050505081565b60008073ffffffffffffffffffffffffffffffffffffffff168373ffffffffffffffffffffffffffffffffffffffff16141561122757600080fd5b3373ffffffffffffffffffffffffffffffffffffffff168373ffffffffffffffffffffffffffffffffffffffff16141561126057600080fd5b611269336110fb565b82111561127557600080fd5b6112c782600460003373ffffffffffffffffffffffffffffffffffffffff1673ffffffffffffffffffffffffffffffffffffffff168152602001908152602001600020546114d990919063ffffffff16565b600460003373ffffffffffffffffffffffffffffffffffffffff1673ffffffffffffffffffffffffffffffffffffffff1681526020019081526020016000208190555061135c82600460008673ffffffffffffffffffffffffffffffffffffffff1673ffffffffffffffffffffffffffffffffffffffff168152602001908152602001600020546114f090919063ffffffff16565b600460008573ffffffffffffffffffffffffffffffffffffffff1673ffffffffffffffffffffffffffffffffffffffff168152602001908152602001600020819055508273ffffffffffffffffffffffffffffffffffffffff163373ffffffffffffffffffffffffffffffffffffffff167fddf252ad1be2c89b69c2b068fc378daa952ba7f163c4a11628f55a4df523b3ef846040516113fc9190611bbd565b60405180910390a36001905092915050565b600c602052816000526040600020818154811061142757fe5b90600052602060002001600091509150505481565b6000611447336110fb565b905090565b6000600560008473ffffffffffffffffffffffffffffffffffffffff1673ffffffffffffffffffffffffffffffffffffffff16815260200190815260200160002060008373ffffffffffffffffffffffffffffffffffffffff1673ffffffffffffffffffffffffffffffffffffffff16815260200190815260200160002054905092915050565b60085481565b6000828211156114e557fe5b818303905092915050565b60008082840190508381101561150257fe5b8091505092915050565b6040518060a00160405280600080191681526020016000801916815260200160008152602001600073ffffffffffffffffffffffffffffffffffffffff16815260200161155761155d565b81525090565b604051806060016040528060008019168152602001600060ff168152602001600060ff1681525090565b60008135905061159681611cd0565b92915050565b6000813590506115ab81611ce7565b92915050565b6000813590506115c081611cfe565b92915050565b6000813590506115d581611d15565b92915050565b6000602082840312156115ed57600080fd5b60006115fb84828501611587565b91505092915050565b6000806040838503121561161757600080fd5b600061162585828601611587565b925050602061163685828601611587565b9150509250929050565b60008060006060848603121561165557600080fd5b600061166386828701611587565b935050602061167486828701611587565b9250506040611685868287016115b1565b9150509250925092565b600080604083850312156116a257600080fd5b60006116b085828601611587565b92505060206116c1858286016115b1565b9150509250929050565b6000602082840312156116dd57600080fd5b60006116eb8482850161159c565b91505092915050565b600080600080600060a0868803121561170c57600080fd5b600061171a8882890161159c565b955050602061172b8882890161159c565b945050604061173c8882890161159c565b935050606061174d888289016115c6565b925050608061175e888289016115c6565b9150509295509295909350565b60006020828403121561177d57600080fd5b600061178b848285016115b1565b91505092915050565b600080604083850312156117a757600080fd5b60006117b5858286016115b1565b92505060206117c6858286016115b1565b9150509250929050565b60006117dc8383611864565b60208301905092915050565b6117f181611c2d565b82525050565b600061180282611be8565b61180c8185611c0b565b935061181783611bd8565b8060005b8381101561184857815161182f88826117d0565b975061183a83611bfe565b92505060018101905061181b565b5085935050505092915050565b61185e81611c3f565b82525050565b61186d81611c4b565b82525050565b61187c81611c4b565b82525050565b600061188d82611bf3565b6118978185611c1c565b93506118a7818560208601611c8c565b6118b081611cbf565b840191505092915050565b60006118c8601783611c1c565b91507f446f63756d656e7420616c7265616479206578697374730000000000000000006000830152602082019050919050565b6000611908600f83611c1c565b91507f496e76616c6964206163636f756e7400000000000000000000000000000000006000830152602082019050919050565b6000611948600d83611c1c565b91507f496e76616c696420646f634964000000000000000000000000000000000000006000830152602082019050919050565b6000611988601783611c1c565b91507f496e76616c696420696e6372656d656e742076616c75650000000000000000006000830152602082019050919050565b60006119c8601d83611c1c565b91507f496e76616c69642069706673446f6320666f6c646572206469676573740000006000830152602082019050919050565b611a0481611c75565b82525050565b611a1381611c7f565b82525050565b6000602082019050611a2e60008301846117e8565b92915050565b60006020820190508181036000830152611a4e81846117f7565b905092915050565b6000602082019050611a6b6000830184611855565b92915050565b6000602082019050611a866000830184611873565b92915050565b600060e082019050611aa1600083018a611873565b611aae6020830189611873565b611abb60408301886119fb565b611ac860608301876117e8565b611ad56080830186611873565b611ae260a0830185611a0a565b611aef60c0830184611a0a565b98975050505050505050565b60006020820190508181036000830152611b158184611882565b905092915050565b60006020820190508181036000830152611b36816118bb565b9050919050565b60006020820190508181036000830152611b56816118fb565b9050919050565b60006020820190508181036000830152611b768161193b565b9050919050565b60006020820190508181036000830152611b968161197b565b9050919050565b60006020820190508181036000830152611bb6816119bb565b9050919050565b6000602082019050611bd260008301846119fb565b92915050565b6000819050602082019050919050565b600081519050919050565b600081519050919050565b6000602082019050919050565b600082825260208201905092915050565b600082825260208201905092915050565b6000611c3882611c55565b9050919050565b60008115159050919050565b6000819050919050565b600073ffffffffffffffffffffffffffffffffffffffff82169050919050565b6000819050919050565b600060ff82169050919050565b60005b83811015611caa578082015181840152602081019050611c8f565b83811115611cb9576000848401525b50505050565b6000601f19601f8301169050919050565b611cd981611c2d565b8114611ce457600080fd5b50565b611cf081611c4b565b8114611cfb57600080fd5b50565b611d0781611c75565b8114611d1257600080fd5b50565b611d1e81611c7f565b8114611d2957600080fd5b50565b600080831415611d3f5760009050611d5d565b6000828402905082848281611d5057fe5b0414611d5857fe5b809150505b9291505056fea365627a7a723158206a8f161df2ed169b5b53e03f09e8457a31502ae85050555cc92eea6976c2000b6c6578706572696d656e74616cf564736f6c63430005100040",
  "source": "pragma solidity  >=0.5.0;\npragma experimental ABIEncoderV2;\n\nimport \"./interfaces/IDappState.sol\";\nimport \"./DappLib.sol\";\n\n\n/********************************************************************************************/\n/* This contract is auto-generated based on your choices in DappStarter. You can make       */\n/* changes, but be aware that generating a new DappStarter project will require you to      */\n/* merge changes. One approach you can take is to make changes in Dapp.sol and have it      */\n/* call into this one. You can maintain all your data in this contract and your app logic   */\n/* in Dapp.sol. This lets you update and deploy Dapp.sol with revised code and still        */\n/* continue using this one.                                                                 */\n/********************************************************************************************/\n\ncontract DappState is IDappState {\n    // Allow DappLib(SafeMath) functions to be called for all uint256 types\n    // (similar to \"prototype\" in Javascript)\n    using DappLib for uint256; \n\n/*>>>>>>>>>>>>>>>>>>>>>>>>>>>>>>>>>>> FILE STORAGE: IPFS  <<<<<<<<<<<<<<<<<<<<<<<<<<<<<<<<<<*/\n    using DappLib for DappLib.Multihash;\n\n\n/*@@@@@@@@@@@@@@@@@@@@@@@@@@@@@@@@@@@@@@@@@@@@@@@@@@@@@@@@@@@@@@@@@@@@@@@@@@@@@@@@@@@@@@@@@@*/\n/*@@@@@@@@@@@@@@@@@@@@@@@@@@@@@@@@@@@@@@@@ S T A T E @@@@@@@@@@@@@@@@@@@@@@@@@@@@@@@@@@@@@@@*/\n/*@@@@@@@@@@@@@@@@@@@@@@@@@@@@@@@@@@@@@@@@@@@@@@@@@@@@@@@@@@@@@@@@@@@@@@@@@@@@@@@@@@@@@@@@@@*/\n\n    // Account used to deploy contract\n    address private contractOwner;                  \n\n/*>>>>>>>>>>>>>>>>>>>>>>>>>>>>>> ASSET VALUE TRACKING: TOKEN  <<<<<<<<<<<<<<<<<<<<<<<<<<<<<<*/\n    string public name;\n    string public symbol;\n    uint256 public decimals;\n    \n    // Token balance for each address\n    mapping(address => uint256) balances;              \n\n    // Approval granted to transfer tokens by one address to another address                 \n    mapping (address => mapping (address => uint256)) internal allowed; \n\n    // Tokens currently in circulation (you'll need to update this if you create more tokens)\n    uint256 public total;                  \n\n    // Tokens created when contract was deployed                             \n    uint256 public initialSupply;         \n\n    // Multiplier to convert to smallest unit                              \n    uint256 public UNIT_MULTIPLIER;                                     \n\n/*>>>>>>>>>>>>>>>>>>>>>>>>>>>>>>>>>>> FILE STORAGE: IPFS  <<<<<<<<<<<<<<<<<<<<<<<<<<<<<<<<<<*/\n    struct IpfsDocument {\n        // Unique identifier -- defaults to multihash digest of file\n        bytes32 docId;    \n\n        bytes32 label;\n\n        // Registration timestamp                                          \n        uint256 timestamp;  \n\n        // Owner of document                                        \n        address owner;    \n\n        // External Document reference                                          \n        DappLib.Multihash docRef;                                   \n    }\n\n    // All added documents\n    mapping(bytes32 => IpfsDocument) ipfsDocs;                            \n\n    uint constant IPFS_DOCS_PAGE_SIZE = 50;\n    uint256 public ipfsLastPage = 0;\n\n    // All documents organized by page\n    mapping(uint256 => bytes32[]) public ipfsDocsByPage;         \n\n    // All documents for which an account is the owner\n    mapping(address => bytes32[]) public ipfsDocsByOwner;              \n\n\n/*@@@@@@@@@@@@@@@@@@@@@@@@@@@@@@@@@@@@@@@@@@@@@@@@@@@@@@@@@@@@@@@@@@@@@@@@@@@@@@@@@@@@@@@@@@*/\n/*@@@@@@@@@@@@@@@@@@@@@@@@@@@@@@@@@@ C O N S T R U C T O R @@@@@@@@@@@@@@@@@@@@@@@@@@@@@@@@@*/\n/*@@@@@@@@@@@@@@@@@@@@@@@@@@@@@@@@@@@@@@@@@@@@@@@@@@@@@@@@@@@@@@@@@@@@@@@@@@@@@@@@@@@@@@@@@@*/\n\n    constructor() public \n    {\n        contractOwner = msg.sender;       \n\n/*>>>>>>>>>>>>>>>>>>>>>>>>>>>>>> ASSET VALUE TRACKING: TOKEN  <<<<<<<<<<<<<<<<<<<<<<<<<<<<<<*/\n        name = \"Aurum Coin\";             \n        symbol = \"AUC\";           \n        decimals = 18;     \n\n        // Multiplier to convert to smallest unit\n        UNIT_MULTIPLIER = 10 ** uint256(decimals); \n\n        uint256 supply = 10000000000;       \n\n        // Convert supply to smallest unit\n        total = supply.mul(UNIT_MULTIPLIER);    \n        initialSupply = total;\n\n        // Assign entire initial supply to contract owner\n        balances[contractOwner] = total;    \n\n    }\n\n/*@@@@@@@@@@@@@@@@@@@@@@@@@@@@@@@@@@@@@@@@@@@@@@@@@@@@@@@@@@@@@@@@@@@@@@@@@@@@@@@@@@@@@@@@@@*/\n/*@@@@@@@@@@@@@@@@@@@@@@@@@@@@@@@@@@@@@@@ E V E N T S @@@@@@@@@@@@@@@@@@@@@@@@@@@@@@@@@@@@@@*/\n/*@@@@@@@@@@@@@@@@@@@@@@@@@@@@@@@@@@@@@@@@@@@@@@@@@@@@@@@@@@@@@@@@@@@@@@@@@@@@@@@@@@@@@@@@@@*/\n\n\n/*>>>>>>>>>>>>>>>>>>>>>>>>>>>>>> ASSET VALUE TRACKING: TOKEN  <<<<<<<<<<<<<<<<<<<<<<<<<<<<<<*/\n    // Fired when an account authorizes another account to spend tokens on its behalf\n    event Approval          \n                            (\n                                address indexed owner, \n                                address indexed spender, \n                                uint256 value\n                            );\n\n    // Fired when tokens are transferred from one account to another\n    event Transfer          \n                            (\n                                address indexed from, \n                                address indexed to, \n                                uint256 value\n                            );\n\n/*>>>>>>>>>>>>>>>>>>>>>>>>>>>>>>>>>>> FILE STORAGE: IPFS  <<<<<<<<<<<<<<<<<<<<<<<<<<<<<<<<<<*/\n    // Event fired when doc is added\n    event AddIpfsDocument      \n                    (\n                        bytes32 indexed docId,\n                        address indexed owner,\n                        uint256 timestamp\n                    );\n\n\n/*@@@@@@@@@@@@@@@@@@@@@@@@@@@@@@@@@@@@@@@@@@@@@@@@@@@@@@@@@@@@@@@@@@@@@@@@@@@@@@@@@@@@@@@@@@*/\n/*@@@@@@@@@@@@@@@@@@@@@@@@@@@@@@@@@@@@ M O D I F I E R S @@@@@@@@@@@@@@@@@@@@@@@@@@@@@@@@@@@*/\n/*@@@@@@@@@@@@@@@@@@@@@@@@@@@@@@@@@@@@@@@@@@@@@@@@@@@@@@@@@@@@@@@@@@@@@@@@@@@@@@@@@@@@@@@@@@*/\n\n///+modifiers\n\n/*@@@@@@@@@@@@@@@@@@@@@@@@@@@@@@@@@@@@@@@@@@@@@@@@@@@@@@@@@@@@@@@@@@@@@@@@@@@@@@@@@@@@@@@@@@*/\n/*@@@@@@@@@@@@@@@@@@@@@@@@@@@@@@@@@@@@@@ F U N C T I O N S @@@@@@@@@@@@@@@@@@@@@@@@@@@@@@@@@*/\n/*@@@@@@@@@@@@@@@@@@@@@@@@@@@@@@@@@@@@@@@@@@@@@@@@@@@@@@@@@@@@@@@@@@@@@@@@@@@@@@@@@@@@@@@@@@*/\n\n\n/*>>>>>>>>>>>>>>>>>>>>>>>>>>>>>> ASSET VALUE TRACKING: TOKEN  <<<<<<<<<<<<<<<<<<<<<<<<<<<<<<*/\n    /**\n    * @dev Total supply of tokens\n    */\n    function totalSupply() \n                            external \n                            view \n                            returns (uint256) \n    {\n        return total;\n    }\n\n    /**\n    * @dev Gets the balance of the calling address.\n    *\n    * @return An uint256 representing the amount owned by the calling address\n    */\n    function balance()\n                            public \n                            view \n                            returns (uint256) \n    {\n        return balanceOf(msg.sender);\n    }\n\n    /**\n    * @dev Gets the balance of the specified address.\n    *\n    * @param owner The address to query the balance of\n    * @return An uint256 representing the amount owned by the passed address\n    */\n    function balanceOf\n                            (\n                                address owner\n                            ) \n                            public \n                            view \n                            returns (uint256) \n    {\n        return balances[owner];\n    }\n\n    /**\n    * @dev Transfers token for a specified address\n    *\n    * @param to The address to transfer to.\n    * @param value The amount to be transferred.\n    * @return A bool indicating if the transfer was successful.\n    */\n    function transfer\n                            (\n                                address to, \n                                uint256 value\n                            ) \n                            public \n                            returns (bool) \n    {\n        require(to != address(0));\n        require(to != msg.sender);\n        require(value <= balanceOf(msg.sender));                                         \n\n        balances[msg.sender] = balances[msg.sender].sub(value);\n        balances[to] = balances[to].add(value);\n        emit Transfer(msg.sender, to, value);\n        return true;\n    }\n\n    /**\n    * @dev Transfers tokens from one address to another\n    *\n    * @param from address The address which you want to send tokens from\n    * @param to address The address which you want to transfer to\n    * @param value uint256 the amount of tokens to be transferred\n    * @return A bool indicating if the transfer was successful.\n    */\n    function transferFrom\n                            (\n                                address from, \n                                address to, \n                                uint256 value\n                            ) \n                            public \n                            returns (bool) \n    {\n        require(from != address(0));\n        require(value <= allowed[from][msg.sender]);\n        require(value <= balanceOf(from));                                         \n        require(to != address(0));\n        require(from != to);\n\n        balances[from] = balances[from].sub(value);\n        balances[to] = balances[to].add(value);\n        allowed[from][msg.sender] = allowed[from][msg.sender].sub(value);\n        emit Transfer(from, to, value);\n        return true;\n    }\n\n    /**\n    * @dev Checks the amount of tokens that an owner allowed to a spender.\n    *\n    * @param owner address The address which owns the funds.\n    * @param spender address The address which will spend the funds.\n    * @return A uint256 specifying the amount of tokens still available for the spender.\n    */\n    function allowance\n                            (\n                                address owner, \n                                address spender\n                            ) \n                            public \n                            view \n                            returns (uint256) \n    {\n        return allowed[owner][spender];\n    }\n\n    /**\n    * @dev Approves the passed address to spend the specified amount of tokens \n    *      on behalf of msg.sender.\n    *\n    * @param spender The address which will spend the funds.\n    * @param value The amount of tokens to be spent.\n    * @return A bool indicating success (always returns true)\n    */\n    function approve\n                            (\n                                address spender, \n                                uint256 value\n                            ) \n                            public \n                            returns (bool) \n    {\n        allowed[msg.sender][spender] = value;\n        emit Approval(msg.sender, spender, value);\n        return true;\n    }\n\n\n/*>>>>>>>>>>>>>>>>>>>>>>>>>>>>>>>>>>> FILE STORAGE: IPFS  <<<<<<<<<<<<<<<<<<<<<<<<<<<<<<<<<<*/\n    /**\n    * @dev Adds a new IPFS doc\n    *\n    * @param docId Unique identifier (multihash digest of doc)\n    * @param label Short, descriptive label for document\n    * @param digest Digest of folder with doc binary and metadata\n    * @param hashFunction Function used for generating doc folder hash\n    * @param digestLength Length of doc folder hash\n    */\n    function addIpfsDocument\n                        (\n                            bytes32 docId,\n                            bytes32 label,\n                            bytes32 digest,\n                            uint8 hashFunction,\n                            uint8 digestLength\n                        ) \n                        external \n    {\n        // Prevent empty string for docId\n        require(docId[0] != 0, \"Invalid docId\");  \n\n        // Prevent empty string for digest                             \n        require(digest[0] != 0, \"Invalid ipfsDoc folder digest\");            \n\n        // Prevent duplicate docIds   \n        require(ipfsDocs[docId].timestamp == 0, \"Document already exists\");     \n\n        ipfsDocs[docId] = IpfsDocument({\n                                    docId: docId,\n                                    label: label,\n                                    timestamp: now,\n                                    owner: msg.sender,\n                                    docRef: DappLib.Multihash({\n                                                    digest: digest,\n                                                    hashFunction: hashFunction,\n                                                    digestLength: digestLength\n                                                })\n                               });\n\n        ipfsDocsByOwner[msg.sender].push(docId);\n        if (ipfsDocsByPage[ipfsLastPage].length == IPFS_DOCS_PAGE_SIZE) {\n            ipfsLastPage++;\n        }\n        ipfsDocsByPage[ipfsLastPage].push(docId);\n\n        emit AddIpfsDocument(docId, msg.sender, ipfsDocs[docId].timestamp);\n    }\n\n    /**\n    * @dev Gets individual IPFS doc by docId\n    *\n    * @param id DocumentId of doc\n    */\n    function getIpfsDocument\n                    (\n                        bytes32 id\n                    )\n                    external\n                    view\n                    returns(\n                                bytes32 docId, \n                                bytes32 label,\n                                uint256 timestamp, \n                                address owner, \n                                bytes32 docDigest,\n                                uint8 docHashFunction,\n                                uint8 docDigestLength\n                    )\n    {\n        IpfsDocument memory ipfsDoc = ipfsDocs[id];\n        docId = ipfsDoc.docId;\n        label = ipfsDoc.label;\n        timestamp = ipfsDoc.timestamp;\n        owner = ipfsDoc.owner;\n        docDigest = ipfsDoc.docRef.digest;\n        docHashFunction = ipfsDoc.docRef.hashFunction;\n        docDigestLength = ipfsDoc.docRef.digestLength;\n\n    }\n\n    /**\n    * @dev Gets docs where account is/was an owner\n    *\n    * @param account Address of owner\n    */\n    function getIpfsDocumentsByOwner\n                            (\n                                address account\n                            )\n                            external\n                            view\n                            returns(bytes32[] memory)\n    {\n        require(account != address(0), \"Invalid account\");\n\n        return ipfsDocsByOwner[account];\n    }\n\n\n//  Example functions that demonstrate how to call into this contract that holds state from\n//  another contract. Look in ~/interfaces/IDappState.sol for the interface definitions and\n//  in Dapp.sol for the actual calls into this contract.\n\n    /**\n    * @dev This is an EXAMPLE function that illustrates how functions in this contract can be\n    *      called securely from another contract to READ state data. Using the Contract Access \n    *      block will enable you to make your contract more secure by restricting which external\n    *      contracts can call functions in this contract.\n    */\n    function getContractOwner()\n                                external\n                                view\n                                returns(address)\n    {\n        return contractOwner;\n    }\n\n    uint256 counter;    // This is an example variable used only to demonstrate calling\n                        // a function that writes state from an external contract. It and\n                        // \"incrementCounter\" and \"getCounter\" functions can (should?) be deleted.\n    /**\n    * @dev This is an EXAMPLE function that illustrates how functions in this contract can be\n    *      called securely from another contract to WRITE state data. Using the Contract Access \n    *      block will enable you to make your contract more secure by restricting which external\n    *       contracts can call functions in this contract.\n    */\n    function incrementCounter\n                            (\n                                uint256 increment\n                            )\n                            external\n                            // Enable the modifier below if using the Contract Access feature\n                            // requireContractAuthorized\n    {\n        // NOTE: If another contract is calling this function, then msg.sender will be the address\n        //       of the calling contract and NOT the address of the user who initiated the\n        //       transaction. It is possible to get the address of the user, but this is \n        //       spoofable and therefore not recommended.\n        \n        require(increment > 0 && increment < 10, \"Invalid increment value\");\n        counter = counter.add(increment);   // Demonstration of using SafeMath to add to a number\n                                            // While verbose, using SafeMath everywhere that you\n                                            // add/sub/div/mul will ensure your contract does not\n                                            // have weird overflow bugs.\n    }\n\n    /**\n    * @dev This is an another EXAMPLE function that illustrates how functions in this contract can be\n    *      called securely from another contract to READ state data. Using the Contract Access \n    *      block will enable you to make your contract more secure by restricting which external\n    *      contracts can call functions in this contract.\n    */\n    function getCounter()\n                                external\n                                view\n                                returns(uint256)\n    {\n        return counter;\n    }\n\n}   \n\n\n",
  "sourcePath": "/Users/adike/WebstormProjects/polite-ibakof/contracts/DappState.sol",
  "compiler": {
    "name": "solc",
    "version": "0.5.16+commit.9c3226ce.Emscripten.clang"
  },
  "schemaVersion": "3.0.23",
  "updatedAt": "2020-03-02T17:47:44.143Z",
  "networkType": "ethereum",
  "devdoc": {
    "methods": {
      "addIpfsDocument(bytes32,bytes32,bytes32,uint8,uint8)": {
        "details": "Adds a new IPFS doc",
        "params": {
          "digest": "Digest of folder with doc binary and metadata",
          "digestLength": "Length of doc folder hash",
          "docId": "Unique identifier (multihash digest of doc)",
          "hashFunction": "Function used for generating doc folder hash",
          "label": "Short, descriptive label for document"
        }
      },
      "allowance(address,address)": {
        "details": "Checks the amount of tokens that an owner allowed to a spender.",
        "params": {
          "owner": "address The address which owns the funds.",
          "spender": "address The address which will spend the funds."
        },
        "return": "A uint256 specifying the amount of tokens still available for the spender."
      },
      "approve(address,uint256)": {
        "details": "Approves the passed address to spend the specified amount of tokens      on behalf of msg.sender.",
        "params": {
          "spender": "The address which will spend the funds.",
          "value": "The amount of tokens to be spent."
        },
        "return": "A bool indicating success (always returns true)"
      },
      "balance()": {
        "details": "Gets the balance of the calling address.",
        "return": "An uint256 representing the amount owned by the calling address"
      },
      "balanceOf(address)": {
        "details": "Gets the balance of the specified address.",
        "params": {
          "owner": "The address to query the balance of"
        },
        "return": "An uint256 representing the amount owned by the passed address"
      },
      "getContractOwner()": {
        "details": "This is an EXAMPLE function that illustrates how functions in this contract can be     called securely from another contract to READ state data. Using the Contract Access      block will enable you to make your contract more secure by restricting which external     contracts can call functions in this contract."
      },
      "getCounter()": {
        "details": "This is an another EXAMPLE function that illustrates how functions in this contract can be     called securely from another contract to READ state data. Using the Contract Access      block will enable you to make your contract more secure by restricting which external     contracts can call functions in this contract."
      },
      "getIpfsDocument(bytes32)": {
        "details": "Gets individual IPFS doc by docId",
        "params": {
          "id": "DocumentId of doc"
        }
      },
      "getIpfsDocumentsByOwner(address)": {
        "details": "Gets docs where account is/was an owner",
        "params": {
          "account": "Address of owner"
        }
      },
      "incrementCounter(uint256)": {
        "details": "This is an EXAMPLE function that illustrates how functions in this contract can be     called securely from another contract to WRITE state data. Using the Contract Access      block will enable you to make your contract more secure by restricting which external      contracts can call functions in this contract."
      },
      "totalSupply()": {
        "details": "Total supply of tokens"
      },
      "transfer(address,uint256)": {
        "details": "Transfers token for a specified address",
        "params": {
          "to": "The address to transfer to.",
          "value": "The amount to be transferred."
        },
        "return": "A bool indicating if the transfer was successful."
      },
      "transferFrom(address,address,uint256)": {
        "details": "Transfers tokens from one address to another",
        "params": {
          "from": "address The address which you want to send tokens from",
          "to": "address The address which you want to transfer to",
          "value": "uint256 the amount of tokens to be transferred"
        },
        "return": "A bool indicating if the transfer was successful."
      }
    }
  },
  "userdoc": {
    "methods": {},
    "notice": "*****************************************************************************************"
  }
}